{
  "contractName": "finxterArt",
  "abi": [
    {
      "inputs": [
        {
          "internalType": "string",
          "name": "name",
          "type": "string"
        },
        {
          "internalType": "string",
          "name": "symbol",
          "type": "string"
        }
      ],
      "stateMutability": "nonpayable",
      "type": "constructor"
    },
    {
      "anonymous": false,
      "inputs": [
        {
          "indexed": true,
          "internalType": "address",
          "name": "owner",
          "type": "address"
        },
        {
          "indexed": true,
          "internalType": "address",
          "name": "approved",
          "type": "address"
        },
        {
          "indexed": true,
          "internalType": "uint256",
          "name": "tokenId",
          "type": "uint256"
        }
      ],
      "name": "Approval",
      "type": "event"
    },
    {
      "anonymous": false,
      "inputs": [
        {
          "indexed": true,
          "internalType": "address",
          "name": "owner",
          "type": "address"
        },
        {
          "indexed": true,
          "internalType": "address",
          "name": "operator",
          "type": "address"
        },
        {
          "indexed": false,
          "internalType": "bool",
          "name": "approved",
          "type": "bool"
        }
      ],
      "name": "ApprovalForAll",
      "type": "event"
    },
    {
      "anonymous": false,
      "inputs": [
        {
          "indexed": false,
          "internalType": "uint256",
          "name": "_tokenId",
          "type": "uint256"
        },
        {
          "indexed": false,
          "internalType": "uint256",
          "name": "_status",
          "type": "uint256"
        },
        {
          "indexed": false,
          "internalType": "uint256",
          "name": "_price",
          "type": "uint256"
        }
      ],
      "name": "LogArtResell",
      "type": "event"
    },
    {
      "anonymous": false,
      "inputs": [
        {
          "indexed": false,
          "internalType": "uint256",
          "name": "_tokenId",
          "type": "uint256"
        },
        {
          "indexed": false,
          "internalType": "string",
          "name": "_title",
          "type": "string"
        },
        {
          "indexed": false,
          "internalType": "string",
          "name": "_authorName",
          "type": "string"
        },
        {
          "indexed": false,
          "internalType": "uint256",
          "name": "_price",
          "type": "uint256"
        },
        {
          "indexed": false,
          "internalType": "address",
          "name": "_author",
          "type": "address"
        },
        {
          "indexed": false,
          "internalType": "address",
          "name": "_current_owner",
          "type": "address"
        },
        {
          "indexed": false,
          "internalType": "address",
          "name": "_buyer",
          "type": "address"
        }
      ],
      "name": "LogArtSold",
      "type": "event"
    },
    {
      "anonymous": false,
      "inputs": [
        {
          "indexed": false,
          "internalType": "uint256",
          "name": "_tokenId",
          "type": "uint256"
        },
        {
          "indexed": false,
          "internalType": "string",
          "name": "_title",
          "type": "string"
        },
        {
          "indexed": false,
          "internalType": "string",
          "name": "_category",
          "type": "string"
        },
        {
          "indexed": false,
          "internalType": "string",
          "name": "_authorName",
          "type": "string"
        },
        {
          "indexed": false,
          "internalType": "uint256",
          "name": "_price",
          "type": "uint256"
        },
        {
          "indexed": false,
          "internalType": "address",
          "name": "_author",
          "type": "address"
        },
        {
          "indexed": false,
          "internalType": "address",
          "name": "_current_owner",
          "type": "address"
        }
      ],
      "name": "LogArtTokenCreate",
      "type": "event"
    },
    {
      "anonymous": false,
      "inputs": [
        {
          "indexed": true,
          "internalType": "address",
          "name": "from",
          "type": "address"
        },
        {
          "indexed": true,
          "internalType": "address",
          "name": "to",
          "type": "address"
        },
        {
          "indexed": true,
          "internalType": "uint256",
          "name": "tokenId",
          "type": "uint256"
        }
      ],
      "name": "Transfer",
      "type": "event"
    },
    {
      "inputs": [
        {
          "internalType": "address",
          "name": "to",
          "type": "address"
        },
        {
          "internalType": "uint256",
          "name": "tokenId",
          "type": "uint256"
        }
      ],
      "name": "approve",
      "outputs": [],
      "stateMutability": "nonpayable",
      "type": "function"
    },
    {
      "inputs": [
        {
          "internalType": "uint256",
          "name": "",
          "type": "uint256"
        }
      ],
      "name": "arts",
      "outputs": [
        {
          "internalType": "uint256",
          "name": "id",
          "type": "uint256"
        },
        {
          "internalType": "string",
          "name": "title",
          "type": "string"
        },
        {
          "internalType": "string",
          "name": "description",
          "type": "string"
        },
        {
          "internalType": "uint256",
          "name": "price",
          "type": "uint256"
        },
        {
          "internalType": "string",
          "name": "date",
          "type": "string"
        },
        {
          "internalType": "string",
          "name": "authorName",
          "type": "string"
        },
        {
          "internalType": "address payable",
          "name": "author",
          "type": "address"
        },
        {
          "internalType": "address payable",
          "name": "owner",
          "type": "address"
        },
        {
          "internalType": "uint256",
          "name": "status",
          "type": "uint256"
        },
        {
          "internalType": "string",
          "name": "image",
          "type": "string"
        }
      ],
      "stateMutability": "view",
      "type": "function",
      "constant": true
    },
    {
      "inputs": [
        {
          "internalType": "address",
          "name": "owner",
          "type": "address"
        }
      ],
      "name": "balanceOf",
      "outputs": [
        {
          "internalType": "uint256",
          "name": "",
          "type": "uint256"
        }
      ],
      "stateMutability": "view",
      "type": "function",
      "constant": true
    },
    {
      "inputs": [
        {
          "internalType": "uint256",
          "name": "tokenId",
          "type": "uint256"
        }
      ],
      "name": "getApproved",
      "outputs": [
        {
          "internalType": "address",
          "name": "",
          "type": "address"
        }
      ],
      "stateMutability": "view",
      "type": "function",
      "constant": true
    },
    {
      "inputs": [],
      "name": "index",
      "outputs": [
        {
          "internalType": "uint256",
          "name": "",
          "type": "uint256"
        }
      ],
      "stateMutability": "view",
      "type": "function",
      "constant": true
    },
    {
      "inputs": [
        {
          "internalType": "address",
          "name": "owner",
          "type": "address"
        },
        {
          "internalType": "address",
          "name": "operator",
          "type": "address"
        }
      ],
      "name": "isApprovedForAll",
      "outputs": [
        {
          "internalType": "bool",
          "name": "",
          "type": "bool"
        }
      ],
      "stateMutability": "view",
      "type": "function",
      "constant": true
    },
    {
      "inputs": [],
      "name": "name",
      "outputs": [
        {
          "internalType": "string",
          "name": "",
          "type": "string"
        }
      ],
      "stateMutability": "view",
      "type": "function",
      "constant": true
    },
    {
      "inputs": [
        {
          "internalType": "uint256",
          "name": "tokenId",
          "type": "uint256"
        }
      ],
      "name": "ownerOf",
      "outputs": [
        {
          "internalType": "address",
          "name": "",
          "type": "address"
        }
      ],
      "stateMutability": "view",
      "type": "function",
      "constant": true
    },
    {
      "inputs": [
        {
          "internalType": "address",
          "name": "from",
          "type": "address"
        },
        {
          "internalType": "address",
          "name": "to",
          "type": "address"
        },
        {
          "internalType": "uint256",
          "name": "tokenId",
          "type": "uint256"
        }
      ],
      "name": "safeTransferFrom",
      "outputs": [],
      "stateMutability": "nonpayable",
      "type": "function"
    },
    {
      "inputs": [
        {
          "internalType": "address",
          "name": "from",
          "type": "address"
        },
        {
          "internalType": "address",
          "name": "to",
          "type": "address"
        },
        {
          "internalType": "uint256",
          "name": "tokenId",
          "type": "uint256"
        },
        {
          "internalType": "bytes",
          "name": "_data",
          "type": "bytes"
        }
      ],
      "name": "safeTransferFrom",
      "outputs": [],
      "stateMutability": "nonpayable",
      "type": "function"
    },
    {
      "inputs": [
        {
          "internalType": "address",
          "name": "operator",
          "type": "address"
        },
        {
          "internalType": "bool",
          "name": "approved",
          "type": "bool"
        }
      ],
      "name": "setApprovalForAll",
      "outputs": [],
      "stateMutability": "nonpayable",
      "type": "function"
    },
    {
      "inputs": [
        {
          "internalType": "bytes4",
          "name": "interfaceId",
          "type": "bytes4"
        }
      ],
      "name": "supportsInterface",
      "outputs": [
        {
          "internalType": "bool",
          "name": "",
          "type": "bool"
        }
      ],
      "stateMutability": "view",
      "type": "function",
      "constant": true
    },
    {
      "inputs": [],
      "name": "symbol",
      "outputs": [
        {
          "internalType": "string",
          "name": "",
          "type": "string"
        }
      ],
      "stateMutability": "view",
      "type": "function",
      "constant": true
    },
    {
      "inputs": [
        {
          "internalType": "uint256",
          "name": "tokenId",
          "type": "uint256"
        }
      ],
      "name": "tokenURI",
      "outputs": [
        {
          "internalType": "string",
          "name": "",
          "type": "string"
        }
      ],
      "stateMutability": "view",
      "type": "function",
      "constant": true
    },
    {
      "inputs": [
        {
          "internalType": "address",
          "name": "from",
          "type": "address"
        },
        {
          "internalType": "address",
          "name": "to",
          "type": "address"
        },
        {
          "internalType": "uint256",
          "name": "tokenId",
          "type": "uint256"
        }
      ],
      "name": "transferFrom",
      "outputs": [],
      "stateMutability": "nonpayable",
      "type": "function"
    },
    {
      "inputs": [
        {
          "internalType": "string",
          "name": "_title",
          "type": "string"
        },
        {
          "internalType": "string",
          "name": "_description",
          "type": "string"
        },
        {
          "internalType": "string",
          "name": "_date",
          "type": "string"
        },
        {
          "internalType": "string",
          "name": "_authorName",
          "type": "string"
        },
        {
          "internalType": "uint256",
          "name": "_price",
          "type": "uint256"
        },
        {
          "internalType": "string",
          "name": "_image",
          "type": "string"
        }
      ],
      "name": "createFinxterToken",
      "outputs": [],
      "stateMutability": "nonpayable",
      "type": "function"
    },
    {
      "inputs": [
        {
          "internalType": "uint256",
          "name": "_tokenId",
          "type": "uint256"
        }
      ],
      "name": "buyFinxterArt",
      "outputs": [],
      "stateMutability": "payable",
      "type": "function",
      "payable": true
    },
    {
      "inputs": [
        {
          "internalType": "uint256",
          "name": "_tokenId",
          "type": "uint256"
        }
      ],
      "name": "findFinxterArt",
      "outputs": [
        {
          "internalType": "uint256",
          "name": "",
          "type": "uint256"
        },
        {
          "internalType": "string",
          "name": "",
          "type": "string"
        },
        {
          "internalType": "string",
          "name": "",
          "type": "string"
        },
        {
          "internalType": "uint256",
          "name": "",
          "type": "uint256"
        },
        {
          "internalType": "uint256",
          "name": "status",
          "type": "uint256"
        },
        {
          "internalType": "string",
          "name": "",
          "type": "string"
        },
        {
          "internalType": "string",
          "name": "",
          "type": "string"
        },
        {
          "internalType": "address",
          "name": "",
          "type": "address"
        },
        {
          "internalType": "address payable",
          "name": "",
          "type": "address"
        },
        {
          "internalType": "string",
          "name": "",
          "type": "string"
        }
      ],
      "stateMutability": "view",
      "type": "function",
      "constant": true
    },
    {
      "inputs": [
        {
          "internalType": "uint256",
          "name": "_tokenId",
          "type": "uint256"
        },
        {
          "internalType": "uint256",
          "name": "_price",
          "type": "uint256"
        }
      ],
      "name": "resellFinxterArt",
      "outputs": [],
      "stateMutability": "payable",
      "type": "function",
      "payable": true
    },
    {
      "inputs": [],
      "name": "findAllPendingFinxterArt",
      "outputs": [
        {
          "internalType": "uint256[]",
          "name": "",
          "type": "uint256[]"
        },
        {
          "internalType": "address[]",
          "name": "",
          "type": "address[]"
        },
        {
          "internalType": "address[]",
          "name": "",
          "type": "address[]"
        },
        {
          "internalType": "uint256[]",
          "name": "",
          "type": "uint256[]"
        }
      ],
      "stateMutability": "view",
      "type": "function",
      "constant": true
    },
    {
      "inputs": [],
      "name": "findMyFinxterArts",
      "outputs": [
        {
          "internalType": "uint256[]",
          "name": "_myArts",
          "type": "uint256[]"
        },
        {
          "internalType": "uint256",
          "name": "tokens",
          "type": "uint256"
        }
      ],
      "stateMutability": "view",
      "type": "function",
      "constant": true
    },
    {
      "inputs": [
        {
          "internalType": "uint256",
          "name": "tokenId",
          "type": "uint256"
        },
        {
          "internalType": "address",
          "name": "account",
          "type": "address"
        }
      ],
      "name": "isOwnerOf",
      "outputs": [
        {
          "internalType": "bool",
          "name": "",
          "type": "bool"
        }
      ],
      "stateMutability": "view",
      "type": "function",
      "constant": true
    },
    {
      "inputs": [],
      "name": "get_symbol",
      "outputs": [
        {
          "internalType": "string",
          "name": "",
          "type": "string"
        }
      ],
      "stateMutability": "view",
      "type": "function",
      "constant": true
    },
    {
      "inputs": [],
      "name": "get_name",
      "outputs": [
        {
          "internalType": "string",
          "name": "",
          "type": "string"
        }
      ],
      "stateMutability": "view",
      "type": "function",
      "constant": true
    }
  ],
  "bytecode": "0x60806040523480156200001157600080fd5b5060405162005310380380620053108339818101604052810190620000379190620002c2565b818181600090805190602001906200005192919062000075565b5080600190805190602001906200006a92919062000075565b5050505050620003ac565b828054620000839062000376565b90600052602060002090601f016020900481019282620000a75760008555620000f3565b82601f10620000c257805160ff1916838001178555620000f3565b82800160010185558215620000f3579182015b82811115620000f2578251825591602001919060010190620000d5565b5b50905062000102919062000106565b5090565b5b808211156200012157600081600090555060010162000107565b5090565b6000604051905090565b600080fd5b600080fd5b600080fd5b600080fd5b6000601f19601f8301169050919050565b7f4e487b7100000000000000000000000000000000000000000000000000000000600052604160045260246000fd5b6200018e8262000143565b810181811067ffffffffffffffff82111715620001b057620001af62000154565b5b80604052505050565b6000620001c562000125565b9050620001d3828262000183565b919050565b600067ffffffffffffffff821115620001f657620001f562000154565b5b620002018262000143565b9050602081019050919050565b60005b838110156200022e57808201518184015260208101905062000211565b838111156200023e576000848401525b50505050565b60006200025b6200025584620001d8565b620001b9565b9050828152602081018484840111156200027a57620002796200013e565b5b620002878482856200020e565b509392505050565b600082601f830112620002a757620002a662000139565b5b8151620002b984826020860162000244565b91505092915050565b60008060408385031215620002dc57620002db6200012f565b5b600083015167ffffffffffffffff811115620002fd57620002fc62000134565b5b6200030b858286016200028f565b925050602083015167ffffffffffffffff8111156200032f576200032e62000134565b5b6200033d858286016200028f565b9150509250929050565b7f4e487b7100000000000000000000000000000000000000000000000000000000600052602260045260246000fd5b600060028204905060018216806200038f57607f821691505b60208210811415620003a657620003a562000347565b5b50919050565b614f5480620003bc6000396000f3fe60806040526004361061014b5760003560e01c80636352211e116100b6578063a22cb4651161006f578063a22cb465146104a8578063a61706ee146104d1578063b88d4fde146104fd578063c87b56dd14610526578063e57a104a14610563578063e985e9c5146105a95761014b565b80636352211e1461036f57806370a08231146103ac5780638388fe73146103e95780638d31450d1461041257806395d89b41146104405780639ac016e21461046b5761014b565b80632986c0e5116101085780632986c0e514610263578063301b5ab81461028e5780633a525c29146102b957806342842e0e146102e457806343629a2c1461030d578063619d217f146103295761014b565b806301ffc9a71461015057806306fdde031461018d578063081812fc146101b8578063095ea7b3146101f557806323b872dd1461021e57806325a20d2914610247575b600080fd5b34801561015c57600080fd5b50610177600480360381019061017291906134d9565b6105e6565b6040516101849190613521565b60405180910390f35b34801561019957600080fd5b506101a26106c8565b6040516101af91906135d5565b60405180910390f35b3480156101c457600080fd5b506101df60048036038101906101da919061362d565b61075a565b6040516101ec919061369b565b60405180910390f35b34801561020157600080fd5b5061021c600480360381019061021791906136e2565b6107df565b005b34801561022a57600080fd5b5061024560048036038101906102409190613722565b6108f7565b005b610261600480360381019061025c919061362d565b610957565b005b34801561026f57600080fd5b50610278610db9565b6040516102859190613784565b60405180910390f35b34801561029a57600080fd5b506102a3610dbf565b6040516102b091906135d5565b60405180910390f35b3480156102c557600080fd5b506102ce610dce565b6040516102db91906135d5565b60405180910390f35b3480156102f057600080fd5b5061030b60048036038101906103069190613722565b610ddd565b005b6103276004803603810190610322919061379f565b610dfd565b005b34801561033557600080fd5b50610350600480360381019061034b919061362d565b610ef7565b6040516103669a99989796959493929190613800565b60405180910390f35b34801561037b57600080fd5b506103966004803603810190610391919061362d565b611333565b6040516103a3919061369b565b60405180910390f35b3480156103b857600080fd5b506103d360048036038101906103ce91906138bf565b6113e5565b6040516103e09190613784565b60405180910390f35b3480156103f557600080fd5b50610410600480360381019061040b9190613a21565b61149d565b005b34801561041e57600080fd5b50610427611873565b6040516104379493929190613cb6565b60405180910390f35b34801561044c57600080fd5b50610455612017565b60405161046291906135d5565b60405180910390f35b34801561047757600080fd5b50610492600480360381019061048d9190613d17565b6120a9565b60405161049f9190613521565b60405180910390f35b3480156104b457600080fd5b506104cf60048036038101906104ca9190613d83565b612129565b005b3480156104dd57600080fd5b506104e661213f565b6040516104f4929190613dc3565b60405180910390f35b34801561050957600080fd5b50610524600480360381019061051f9190613e94565b6122d9565b005b34801561053257600080fd5b5061054d6004803603810190610548919061362d565b61233b565b60405161055a91906135d5565b60405180910390f35b34801561056f57600080fd5b5061058a6004803603810190610585919061362d565b6123e2565b6040516105a09a99989796959493929190613f17565b60405180910390f35b3480156105b557600080fd5b506105d060048036038101906105cb9190613fd6565b61272e565b6040516105dd9190613521565b60405180910390f35b60007f80ac58cd000000000000000000000000000000000000000000000000000000007bffffffffffffffffffffffffffffffffffffffffffffffffffffffff1916827bffffffffffffffffffffffffffffffffffffffffffffffffffffffff191614806106b157507f5b5e139f000000000000000000000000000000000000000000000000000000007bffffffffffffffffffffffffffffffffffffffffffffffffffffffff1916827bffffffffffffffffffffffffffffffffffffffffffffffffffffffff1916145b806106c157506106c0826127c2565b5b9050919050565b6060600080546106d790614045565b80601f016020809104026020016040519081016040528092919081815260200182805461070390614045565b80156107505780601f1061072557610100808354040283529160200191610750565b820191906000526020600020905b81548152906001019060200180831161073357829003601f168201915b5050505050905090565b60006107658261282c565b6107a4576040517f08c379a000000000000000000000000000000000000000000000000000000000815260040161079b906140e9565b60405180910390fd5b6004600083815260200190815260200160002060009054906101000a900473ffffffffffffffffffffffffffffffffffffffff169050919050565b60006107ea82611333565b90508073ffffffffffffffffffffffffffffffffffffffff168373ffffffffffffffffffffffffffffffffffffffff16141561085b576040517f08c379a00000000000000000000000000000000000000000000000000000000081526004016108529061417b565b60405180910390fd5b8073ffffffffffffffffffffffffffffffffffffffff1661087a612898565b73ffffffffffffffffffffffffffffffffffffffff1614806108a957506108a8816108a3612898565b61272e565b5b6108e8576040517f08c379a00000000000000000000000000000000000000000000000000000000081526004016108df9061420d565b60405180910390fd5b6108f283836128a0565b505050565b610908610902612898565b82612959565b610947576040517f08c379a000000000000000000000000000000000000000000000000000000000815260040161093e9061429f565b60405180910390fd5b610952838383612a37565b505050565b600080600080600080600061096b88610ef7565b5098509850985050975097505096509650600073ffffffffffffffffffffffffffffffffffffffff168173ffffffffffffffffffffffffffffffffffffffff1614156109b657600080fd5b600073ffffffffffffffffffffffffffffffffffffffff163373ffffffffffffffffffffffffffffffffffffffff1614156109f057600080fd5b8073ffffffffffffffffffffffffffffffffffffffff163373ffffffffffffffffffffffffffffffffffffffff161415610a2957600080fd5b84341015610a3657600080fd5b600073ffffffffffffffffffffffffffffffffffffffff1660098981548110610a6257610a616142bf565b5b90600052602060002090600a020160070160009054906101000a900473ffffffffffffffffffffffffffffffffffffffff1673ffffffffffffffffffffffffffffffffffffffff161415610ab557600080fd5b610ad081338a60405180602001604052806000815250612c93565b84341115610b2b573373ffffffffffffffffffffffffffffffffffffffff166108fc8634610afe919061431d565b9081150290604051600060405180830381858888f19350505050158015610b29573d6000803e3d6000fd5b505b8073ffffffffffffffffffffffffffffffffffffffff166108fc869081150290604051600060405180830381858888f19350505050158015610b71573d6000803e3d6000fd5b503360098981548110610b8757610b866142bf565b5b90600052602060002090600a020160070160006101000a81548173ffffffffffffffffffffffffffffffffffffffff021916908373ffffffffffffffffffffffffffffffffffffffff160217905550600060098981548110610bec57610beb6142bf565b5b90600052602060002090600a02016008018190555060006040518060c001604052808981526020018781526020018373ffffffffffffffffffffffffffffffffffffffff1681526020013373ffffffffffffffffffffffffffffffffffffffff16815260200142815260200186815250905060076000898152602001908152602001600020819080600181540180825580915050600190039060005260206000209060060201600090919091909150600082015181600001556020820151816001015560408201518160020160006101000a81548173ffffffffffffffffffffffffffffffffffffffff021916908373ffffffffffffffffffffffffffffffffffffffff16021790555060608201518160030160006101000a81548173ffffffffffffffffffffffffffffffffffffffff021916908373ffffffffffffffffffffffffffffffffffffffff1602179055506080820151816004015560a08201518160050155505060066000815480929190610d6690614351565b91905055507f33157a2d6e087f53ff6fc0edba4550aa6df53452ece435476cd3ab334ad50c3489888689878733604051610da697969594939291906143da565b60405180910390a1505050505050505050565b60085481565b6060610dc9612017565b905090565b6060610dd86106c8565b905090565b610df8838383604051806020016040528060008152506122d9565b505050565b600073ffffffffffffffffffffffffffffffffffffffff163373ffffffffffffffffffffffffffffffffffffffff161415610e3757600080fd5b610e4182336120a9565b610e4a57600080fd5b600160098381548110610e6057610e5f6142bf565b5b90600052602060002090600a0201600801819055508060098381548110610e8a57610e896142bf565b5b90600052602060002090600a02016003018190555060066000815480929190610eb290614457565b91905055507f8916ae292317d6f324a5ed02fea84bf6881d4065b6d575a8980442469b882b7a82600183604051610eeb939291906144db565b60405180910390a15050565b60006060806000806060806000806060600060098c81548110610f1d57610f1c6142bf565b5b90600052602060002090600a02016040518061014001604052908160008201548152602001600182018054610f5190614045565b80601f0160208091040260200160405190810160405280929190818152602001828054610f7d90614045565b8015610fca5780601f10610f9f57610100808354040283529160200191610fca565b820191906000526020600020905b815481529060010190602001808311610fad57829003601f168201915b50505050508152602001600282018054610fe390614045565b80601f016020809104026020016040519081016040528092919081815260200182805461100f90614045565b801561105c5780601f106110315761010080835404028352916020019161105c565b820191906000526020600020905b81548152906001019060200180831161103f57829003601f168201915b505050505081526020016003820154815260200160048201805461107f90614045565b80601f01602080910402602001604051908101604052809291908181526020018280546110ab90614045565b80156110f85780601f106110cd576101008083540402835291602001916110f8565b820191906000526020600020905b8154815290600101906020018083116110db57829003601f168201915b5050505050815260200160058201805461111190614045565b80601f016020809104026020016040519081016040528092919081815260200182805461113d90614045565b801561118a5780601f1061115f5761010080835404028352916020019161118a565b820191906000526020600020905b81548152906001019060200180831161116d57829003601f168201915b505050505081526020016006820160009054906101000a900473ffffffffffffffffffffffffffffffffffffffff1673ffffffffffffffffffffffffffffffffffffffff1673ffffffffffffffffffffffffffffffffffffffff1681526020016007820160009054906101000a900473ffffffffffffffffffffffffffffffffffffffff1673ffffffffffffffffffffffffffffffffffffffff1673ffffffffffffffffffffffffffffffffffffffff1681526020016008820154815260200160098201805461125990614045565b80601f016020809104026020016040519081016040528092919081815260200182805461128590614045565b80156112d25780601f106112a7576101008083540402835291602001916112d2565b820191906000526020600020905b8154815290600101906020018083116112b557829003601f168201915b5050505050815250509050806000015181602001518260400151836060015184610100015185608001518660a001518760c001518860e001518961012001519a509a509a509a509a509a509a509a509a509a50509193959799509193959799565b6000806002600084815260200190815260200160002060009054906101000a900473ffffffffffffffffffffffffffffffffffffffff169050600073ffffffffffffffffffffffffffffffffffffffff168173ffffffffffffffffffffffffffffffffffffffff1614156113dc576040517f08c379a00000000000000000000000000000000000000000000000000000000081526004016113d390614584565b60405180910390fd5b80915050919050565b60008073ffffffffffffffffffffffffffffffffffffffff168273ffffffffffffffffffffffffffffffffffffffff161415611456576040517f08c379a000000000000000000000000000000000000000000000000000000000815260040161144d90614616565b60405180910390fd5b600360008373ffffffffffffffffffffffffffffffffffffffff1673ffffffffffffffffffffffffffffffffffffffff168152602001908152602001600020549050919050565b60008651116114e1576040517f08c379a00000000000000000000000000000000000000000000000000000000081526004016114d890614682565b60405180910390fd5b6000845111611525576040517f08c379a000000000000000000000000000000000000000000000000000000000815260040161151c906146ee565b60405180910390fd5b6000855111611569576040517f08c379a00000000000000000000000000000000000000000000000000000000081526004016115609061475a565b60405180910390fd5b600082116115ac576040517f08c379a00000000000000000000000000000000000000000000000000000000081526004016115a3906147c6565b60405180910390fd5b60008151116115f0576040517f08c379a00000000000000000000000000000000000000000000000000000000081526004016115e790614832565b60405180910390fd5b600060405180610140016040528060085481526020018881526020018781526020018481526020018681526020018581526020013373ffffffffffffffffffffffffffffffffffffffff1681526020013373ffffffffffffffffffffffffffffffffffffffff1681526020016001815260200183815250905060098190806001815401808255809150506001900390600052602060002090600a02016000909190919091506000820151816000015560208201518160010190805190602001906116bb9291906133ca565b5060408201518160020190805190602001906116d89291906133ca565b506060820151816003015560808201518160040190805190602001906116ff9291906133ca565b5060a082015181600501908051906020019061171c9291906133ca565b5060c08201518160060160006101000a81548173ffffffffffffffffffffffffffffffffffffffff021916908373ffffffffffffffffffffffffffffffffffffffff16021790555060e08201518160070160006101000a81548173ffffffffffffffffffffffffffffffffffffffff021916908373ffffffffffffffffffffffffffffffffffffffff16021790555061010082015181600801556101208201518160090190805190602001906117d39291906133ca565b505050600060016009805490506117ea919061431d565b90506117f63382612cef565b7ff376cc32e072d5cce6d2829c66b30d30fa0bd8fccda5e8fc27dab25430505715818988888833336040516118319796959493929190614852565b60405180910390a16008600081548092919061184c90614457565b91905055506006600081548092919061186490614457565b91905055505050505050505050565b606080606080600060065414156119b957600067ffffffffffffffff81111561189f5761189e6138f6565b5b6040519080825280602002602001820160405280156118cd5781602001602082028036833780820191505090505b50600067ffffffffffffffff8111156118e9576118e86138f6565b5b6040519080825280602002602001820160405280156119175781602001602082028036833780820191505090505b50600067ffffffffffffffff811115611933576119326138f6565b5b6040519080825280602002602001820160405280156119615781602001602082028036833780820191505090505b50600067ffffffffffffffff81111561197d5761197c6138f6565b5b6040519080825280602002602001820160405280156119ab5781602001602082028036833780820191505090505b509350935093509350612011565b60006009805490509050600060065467ffffffffffffffff8111156119e1576119e06138f6565b5b604051908082528060200260200182016040528015611a0f5781602001602082028036833780820191505090505b509050600060065467ffffffffffffffff811115611a3057611a2f6138f6565b5b604051908082528060200260200182016040528015611a5e5781602001602082028036833780820191505090505b509050600060065467ffffffffffffffff811115611a7f57611a7e6138f6565b5b604051908082528060200260200182016040528015611aad5781602001602082028036833780820191505090505b509050600060065467ffffffffffffffff811115611ace57611acd6138f6565b5b604051908082528060200260200182016040528015611afc5781602001602082028036833780820191505090505b5090506000805b86811015611ffd57600060098281548110611b2157611b206142bf565b5b90600052602060002090600a02016040518061014001604052908160008201548152602001600182018054611b5590614045565b80601f0160208091040260200160405190810160405280929190818152602001828054611b8190614045565b8015611bce5780601f10611ba357610100808354040283529160200191611bce565b820191906000526020600020905b815481529060010190602001808311611bb157829003601f168201915b50505050508152602001600282018054611be790614045565b80601f0160208091040260200160405190810160405280929190818152602001828054611c1390614045565b8015611c605780601f10611c3557610100808354040283529160200191611c60565b820191906000526020600020905b815481529060010190602001808311611c4357829003601f168201915b5050505050815260200160038201548152602001600482018054611c8390614045565b80601f0160208091040260200160405190810160405280929190818152602001828054611caf90614045565b8015611cfc5780601f10611cd157610100808354040283529160200191611cfc565b820191906000526020600020905b815481529060010190602001808311611cdf57829003601f168201915b50505050508152602001600582018054611d1590614045565b80601f0160208091040260200160405190810160405280929190818152602001828054611d4190614045565b8015611d8e5780601f10611d6357610100808354040283529160200191611d8e565b820191906000526020600020905b815481529060010190602001808311611d7157829003601f168201915b505050505081526020016006820160009054906101000a900473ffffffffffffffffffffffffffffffffffffffff1673ffffffffffffffffffffffffffffffffffffffff1673ffffffffffffffffffffffffffffffffffffffff1681526020016007820160009054906101000a900473ffffffffffffffffffffffffffffffffffffffff1673ffffffffffffffffffffffffffffffffffffffff1673ffffffffffffffffffffffffffffffffffffffff16815260200160088201548152602001600982018054611e5d90614045565b80601f0160208091040260200160405190810160405280929190818152602001828054611e8990614045565b8015611ed65780601f10611eab57610100808354040283529160200191611ed6565b820191906000526020600020905b815481529060010190602001808311611eb957829003601f168201915b505050505081525050905060018161010001511415611feb578060000151878481518110611f0757611f066142bf565b5b6020026020010181815250508060c00151868481518110611f2b57611f2a6142bf565b5b602002602001019073ffffffffffffffffffffffffffffffffffffffff16908173ffffffffffffffffffffffffffffffffffffffff16815250508060e00151858481518110611f7d57611f7c6142bf565b5b602002602001019073ffffffffffffffffffffffffffffffffffffffff16908173ffffffffffffffffffffffffffffffffffffffff1681525050806101000151848481518110611fd057611fcf6142bf565b5b6020026020010181815250508280611fe790614457565b9350505b5080611ff690614457565b9050611b03565b508484848499509950995099505050505050505b90919293565b60606001805461202690614045565b80601f016020809104026020016040519081016040528092919081815260200182805461205290614045565b801561209f5780601f106120745761010080835404028352916020019161209f565b820191906000526020600020905b81548152906001019060200180831161208257829003601f168201915b5050505050905090565b6000806120b584611333565b9050600073ffffffffffffffffffffffffffffffffffffffff168173ffffffffffffffffffffffffffffffffffffffff1614156120f157600080fd5b8273ffffffffffffffffffffffffffffffffffffffff168173ffffffffffffffffffffffffffffffffffffffff161491505092915050565b61213b612134612898565b8383612d0d565b5050565b606060008073ffffffffffffffffffffffffffffffffffffffff163373ffffffffffffffffffffffffffffffffffffffff16141561217c57600080fd5b6000612187336113e5565b905060008114156121e857600067ffffffffffffffff8111156121ad576121ac6138f6565b5b6040519080825280602002602001820160405280156121db5781602001602082028036833780820191505090505b50600092509250506122d5565b60008167ffffffffffffffff811115612204576122036138f6565b5b6040519080825280602002602001820160405280156122325781602001602082028036833780820191505090505b509050600080600980549050905060005b818110156122c9573373ffffffffffffffffffffffffffffffffffffffff1661226b82611333565b73ffffffffffffffffffffffffffffffffffffffff1614156122b6578084848151811061229b5761229a6142bf565b5b60200260200101818152505082806122b290614457565b9350505b80806122c190614457565b915050612243565b50828495509550505050505b9091565b6122ea6122e4612898565b83612959565b612329576040517f08c379a00000000000000000000000000000000000000000000000000000000081526004016123209061429f565b60405180910390fd5b61233584848484612c93565b50505050565b60606123468261282c565b612385576040517f08c379a000000000000000000000000000000000000000000000000000000000815260040161237c90614948565b60405180910390fd5b600061238f612e7a565b905060008151116123af57604051806020016040528060008152506123da565b806123b984612e91565b6040516020016123ca9291906149a4565b6040516020818303038152906040525b915050919050565b600981815481106123f257600080fd5b90600052602060002090600a020160009150905080600001549080600101805461241b90614045565b80601f016020809104026020016040519081016040528092919081815260200182805461244790614045565b80156124945780601f1061246957610100808354040283529160200191612494565b820191906000526020600020905b81548152906001019060200180831161247757829003601f168201915b5050505050908060020180546124a990614045565b80601f01602080910402602001604051908101604052809291908181526020018280546124d590614045565b80156125225780601f106124f757610100808354040283529160200191612522565b820191906000526020600020905b81548152906001019060200180831161250557829003601f168201915b50505050509080600301549080600401805461253d90614045565b80601f016020809104026020016040519081016040528092919081815260200182805461256990614045565b80156125b65780601f1061258b576101008083540402835291602001916125b6565b820191906000526020600020905b81548152906001019060200180831161259957829003601f168201915b5050505050908060050180546125cb90614045565b80601f01602080910402602001604051908101604052809291908181526020018280546125f790614045565b80156126445780601f1061261957610100808354040283529160200191612644565b820191906000526020600020905b81548152906001019060200180831161262757829003601f168201915b5050505050908060060160009054906101000a900473ffffffffffffffffffffffffffffffffffffffff16908060070160009054906101000a900473ffffffffffffffffffffffffffffffffffffffff16908060080154908060090180546126ab90614045565b80601f01602080910402602001604051908101604052809291908181526020018280546126d790614045565b80156127245780601f106126f957610100808354040283529160200191612724565b820191906000526020600020905b81548152906001019060200180831161270757829003601f168201915b505050505090508a565b6000600560008473ffffffffffffffffffffffffffffffffffffffff1673ffffffffffffffffffffffffffffffffffffffff16815260200190815260200160002060008373ffffffffffffffffffffffffffffffffffffffff1673ffffffffffffffffffffffffffffffffffffffff16815260200190815260200160002060009054906101000a900460ff16905092915050565b60007f01ffc9a7000000000000000000000000000000000000000000000000000000007bffffffffffffffffffffffffffffffffffffffffffffffffffffffff1916827bffffffffffffffffffffffffffffffffffffffffffffffffffffffff1916149050919050565b60008073ffffffffffffffffffffffffffffffffffffffff166002600084815260200190815260200160002060009054906101000a900473ffffffffffffffffffffffffffffffffffffffff1673ffffffffffffffffffffffffffffffffffffffff1614159050919050565b600033905090565b816004600083815260200190815260200160002060006101000a81548173ffffffffffffffffffffffffffffffffffffffff021916908373ffffffffffffffffffffffffffffffffffffffff160217905550808273ffffffffffffffffffffffffffffffffffffffff1661291383611333565b73ffffffffffffffffffffffffffffffffffffffff167f8c5be1e5ebec7d5bd14f71427d1e84f3dd0314c0f7b2291e5b200ac8c7c3b92560405160405180910390a45050565b60006129648261282c565b6129a3576040517f08c379a000000000000000000000000000000000000000000000000000000000815260040161299a90614a3a565b60405180910390fd5b60006129ae83611333565b90508073ffffffffffffffffffffffffffffffffffffffff168473ffffffffffffffffffffffffffffffffffffffff161480612a1d57508373ffffffffffffffffffffffffffffffffffffffff16612a058461075a565b73ffffffffffffffffffffffffffffffffffffffff16145b80612a2e5750612a2d818561272e565b5b91505092915050565b8273ffffffffffffffffffffffffffffffffffffffff16612a5782611333565b73ffffffffffffffffffffffffffffffffffffffff1614612aad576040517f08c379a0000000000000000000000000000000000000000000000000000000008152600401612aa490614acc565b60405180910390fd5b600073ffffffffffffffffffffffffffffffffffffffff168273ffffffffffffffffffffffffffffffffffffffff161415612b1d576040517f08c379a0000000000000000000000000000000000000000000000000000000008152600401612b1490614b5e565b60405180910390fd5b612b28838383612ff2565b612b336000826128a0565b6001600360008573ffffffffffffffffffffffffffffffffffffffff1673ffffffffffffffffffffffffffffffffffffffff1681526020019081526020016000206000828254612b83919061431d565b925050819055506001600360008473ffffffffffffffffffffffffffffffffffffffff1673ffffffffffffffffffffffffffffffffffffffff1681526020019081526020016000206000828254612bda9190614b7e565b92505081905550816002600083815260200190815260200160002060006101000a81548173ffffffffffffffffffffffffffffffffffffffff021916908373ffffffffffffffffffffffffffffffffffffffff160217905550808273ffffffffffffffffffffffffffffffffffffffff168473ffffffffffffffffffffffffffffffffffffffff167fddf252ad1be2c89b69c2b068fc378daa952ba7f163c4a11628f55a4df523b3ef60405160405180910390a4505050565b612c9e848484612a37565b612caa84848484612ff7565b612ce9576040517f08c379a0000000000000000000000000000000000000000000000000000000008152600401612ce090614c46565b60405180910390fd5b50505050565b612d0982826040518060200160405280600081525061318e565b5050565b8173ffffffffffffffffffffffffffffffffffffffff168373ffffffffffffffffffffffffffffffffffffffff161415612d7c576040517f08c379a0000000000000000000000000000000000000000000000000000000008152600401612d7390614cb2565b60405180910390fd5b80600560008573ffffffffffffffffffffffffffffffffffffffff1673ffffffffffffffffffffffffffffffffffffffff16815260200190815260200160002060008473ffffffffffffffffffffffffffffffffffffffff1673ffffffffffffffffffffffffffffffffffffffff16815260200190815260200160002060006101000a81548160ff0219169083151502179055508173ffffffffffffffffffffffffffffffffffffffff168373ffffffffffffffffffffffffffffffffffffffff167f17307eab39ab6107e8899845ad3d59bd9653f200f220920489ca2b5937696c3183604051612e6d9190613521565b60405180910390a3505050565b606060405180602001604052806000815250905090565b60606000821415612ed9576040518060400160405280600181526020017f30000000000000000000000000000000000000000000000000000000000000008152509050612fed565b600082905060005b60008214612f0b578080612ef490614457565b915050600a82612f049190614d01565b9150612ee1565b60008167ffffffffffffffff811115612f2757612f266138f6565b5b6040519080825280601f01601f191660200182016040528015612f595781602001600182028036833780820191505090505b5090505b60008514612fe657600182612f72919061431d565b9150600a85612f819190614d32565b6030612f8d9190614b7e565b60f81b818381518110612fa357612fa26142bf565b5b60200101907effffffffffffffffffffffffffffffffffffffffffffffffffffffffffffff1916908160001a905350600a85612fdf9190614d01565b9450612f5d565b8093505050505b919050565b505050565b60006130188473ffffffffffffffffffffffffffffffffffffffff166131e9565b15613181578373ffffffffffffffffffffffffffffffffffffffff1663150b7a02613041612898565b8786866040518563ffffffff1660e01b81526004016130639493929190614db8565b602060405180830381600087803b15801561307d57600080fd5b505af19250505080156130ae57506040513d601f19601f820116820180604052508101906130ab9190614e19565b60015b613131573d80600081146130de576040519150601f19603f3d011682016040523d82523d6000602084013e6130e3565b606091505b50600081511415613129576040517f08c379a000000000000000000000000000000000000000000000000000000000815260040161312090614c46565b60405180910390fd5b805181602001fd5b63150b7a0260e01b7bffffffffffffffffffffffffffffffffffffffffffffffffffffffff1916817bffffffffffffffffffffffffffffffffffffffffffffffffffffffff191614915050613186565b600190505b949350505050565b61319883836131fc565b6131a56000848484612ff7565b6131e4576040517f08c379a00000000000000000000000000000000000000000000000000000000081526004016131db90614c46565b60405180910390fd5b505050565b600080823b905060008111915050919050565b600073ffffffffffffffffffffffffffffffffffffffff168273ffffffffffffffffffffffffffffffffffffffff16141561326c576040517f08c379a000000000000000000000000000000000000000000000000000000000815260040161326390614e92565b60405180910390fd5b6132758161282c565b156132b5576040517f08c379a00000000000000000000000000000000000000000000000000000000081526004016132ac90614efe565b60405180910390fd5b6132c160008383612ff2565b6001600360008473ffffffffffffffffffffffffffffffffffffffff1673ffffffffffffffffffffffffffffffffffffffff16815260200190815260200160002060008282546133119190614b7e565b92505081905550816002600083815260200190815260200160002060006101000a81548173ffffffffffffffffffffffffffffffffffffffff021916908373ffffffffffffffffffffffffffffffffffffffff160217905550808273ffffffffffffffffffffffffffffffffffffffff16600073ffffffffffffffffffffffffffffffffffffffff167fddf252ad1be2c89b69c2b068fc378daa952ba7f163c4a11628f55a4df523b3ef60405160405180910390a45050565b8280546133d690614045565b90600052602060002090601f0160209004810192826133f8576000855561343f565b82601f1061341157805160ff191683800117855561343f565b8280016001018555821561343f579182015b8281111561343e578251825591602001919060010190613423565b5b50905061344c9190613450565b5090565b5b80821115613469576000816000905550600101613451565b5090565b6000604051905090565b600080fd5b600080fd5b60007fffffffff0000000000000000000000000000000000000000000000000000000082169050919050565b6134b681613481565b81146134c157600080fd5b50565b6000813590506134d3816134ad565b92915050565b6000602082840312156134ef576134ee613477565b5b60006134fd848285016134c4565b91505092915050565b60008115159050919050565b61351b81613506565b82525050565b60006020820190506135366000830184613512565b92915050565b600081519050919050565b600082825260208201905092915050565b60005b8381101561357657808201518184015260208101905061355b565b83811115613585576000848401525b50505050565b6000601f19601f8301169050919050565b60006135a78261353c565b6135b18185613547565b93506135c1818560208601613558565b6135ca8161358b565b840191505092915050565b600060208201905081810360008301526135ef818461359c565b905092915050565b6000819050919050565b61360a816135f7565b811461361557600080fd5b50565b60008135905061362781613601565b92915050565b60006020828403121561364357613642613477565b5b600061365184828501613618565b91505092915050565b600073ffffffffffffffffffffffffffffffffffffffff82169050919050565b60006136858261365a565b9050919050565b6136958161367a565b82525050565b60006020820190506136b0600083018461368c565b92915050565b6136bf8161367a565b81146136ca57600080fd5b50565b6000813590506136dc816136b6565b92915050565b600080604083850312156136f9576136f8613477565b5b6000613707858286016136cd565b925050602061371885828601613618565b9150509250929050565b60008060006060848603121561373b5761373a613477565b5b6000613749868287016136cd565b935050602061375a868287016136cd565b925050604061376b86828701613618565b9150509250925092565b61377e816135f7565b82525050565b60006020820190506137996000830184613775565b92915050565b600080604083850312156137b6576137b5613477565b5b60006137c485828601613618565b92505060206137d585828601613618565b9150509250929050565b60006137ea8261365a565b9050919050565b6137fa816137df565b82525050565b600061014082019050613816600083018d613775565b8181036020830152613828818c61359c565b9050818103604083015261383c818b61359c565b905061384b606083018a613775565b6138586080830189613775565b81810360a083015261386a818861359c565b905081810360c083015261387e818761359c565b905061388d60e083018661368c565b61389b6101008301856137f1565b8181036101208301526138ae818461359c565b90509b9a5050505050505050505050565b6000602082840312156138d5576138d4613477565b5b60006138e3848285016136cd565b91505092915050565b600080fd5b600080fd5b7f4e487b7100000000000000000000000000000000000000000000000000000000600052604160045260246000fd5b61392e8261358b565b810181811067ffffffffffffffff8211171561394d5761394c6138f6565b5b80604052505050565b600061396061346d565b905061396c8282613925565b919050565b600067ffffffffffffffff82111561398c5761398b6138f6565b5b6139958261358b565b9050602081019050919050565b82818337600083830152505050565b60006139c46139bf84613971565b613956565b9050828152602081018484840111156139e0576139df6138f1565b5b6139eb8482856139a2565b509392505050565b600082601f830112613a0857613a076138ec565b5b8135613a188482602086016139b1565b91505092915050565b60008060008060008060c08789031215613a3e57613a3d613477565b5b600087013567ffffffffffffffff811115613a5c57613a5b61347c565b5b613a6889828a016139f3565b965050602087013567ffffffffffffffff811115613a8957613a8861347c565b5b613a9589828a016139f3565b955050604087013567ffffffffffffffff811115613ab657613ab561347c565b5b613ac289828a016139f3565b945050606087013567ffffffffffffffff811115613ae357613ae261347c565b5b613aef89828a016139f3565b9350506080613b0089828a01613618565b92505060a087013567ffffffffffffffff811115613b2157613b2061347c565b5b613b2d89828a016139f3565b9150509295509295509295565b600081519050919050565b600082825260208201905092915050565b6000819050602082019050919050565b613b6f816135f7565b82525050565b6000613b818383613b66565b60208301905092915050565b6000602082019050919050565b6000613ba582613b3a565b613baf8185613b45565b9350613bba83613b56565b8060005b83811015613beb578151613bd28882613b75565b9750613bdd83613b8d565b925050600181019050613bbe565b5085935050505092915050565b600081519050919050565b600082825260208201905092915050565b6000819050602082019050919050565b613c2d8161367a565b82525050565b6000613c3f8383613c24565b60208301905092915050565b6000602082019050919050565b6000613c6382613bf8565b613c6d8185613c03565b9350613c7883613c14565b8060005b83811015613ca9578151613c908882613c33565b9750613c9b83613c4b565b925050600181019050613c7c565b5085935050505092915050565b60006080820190508181036000830152613cd08187613b9a565b90508181036020830152613ce48186613c58565b90508181036040830152613cf88185613c58565b90508181036060830152613d0c8184613b9a565b905095945050505050565b60008060408385031215613d2e57613d2d613477565b5b6000613d3c85828601613618565b9250506020613d4d858286016136cd565b9150509250929050565b613d6081613506565b8114613d6b57600080fd5b50565b600081359050613d7d81613d57565b92915050565b60008060408385031215613d9a57613d99613477565b5b6000613da8858286016136cd565b9250506020613db985828601613d6e565b9150509250929050565b60006040820190508181036000830152613ddd8185613b9a565b9050613dec6020830184613775565b9392505050565b600067ffffffffffffffff821115613e0e57613e0d6138f6565b5b613e178261358b565b9050602081019050919050565b6000613e37613e3284613df3565b613956565b905082815260208101848484011115613e5357613e526138f1565b5b613e5e8482856139a2565b509392505050565b600082601f830112613e7b57613e7a6138ec565b5b8135613e8b848260208601613e24565b91505092915050565b60008060008060808587031215613eae57613ead613477565b5b6000613ebc878288016136cd565b9450506020613ecd878288016136cd565b9350506040613ede87828801613618565b925050606085013567ffffffffffffffff811115613eff57613efe61347c565b5b613f0b87828801613e66565b91505092959194509250565b600061014082019050613f2d600083018d613775565b8181036020830152613f3f818c61359c565b90508181036040830152613f53818b61359c565b9050613f62606083018a613775565b8181036080830152613f74818961359c565b905081810360a0830152613f88818861359c565b9050613f9760c08301876137f1565b613fa460e08301866137f1565b613fb2610100830185613775565b818103610120830152613fc5818461359c565b90509b9a5050505050505050505050565b60008060408385031215613fed57613fec613477565b5b6000613ffb858286016136cd565b925050602061400c858286016136cd565b9150509250929050565b7f4e487b7100000000000000000000000000000000000000000000000000000000600052602260045260246000fd5b6000600282049050600182168061405d57607f821691505b6020821081141561407157614070614016565b5b50919050565b7f4552433732313a20617070726f76656420717565727920666f72206e6f6e657860008201527f697374656e7420746f6b656e0000000000000000000000000000000000000000602082015250565b60006140d3602c83613547565b91506140de82614077565b604082019050919050565b60006020820190508181036000830152614102816140c6565b9050919050565b7f4552433732313a20617070726f76616c20746f2063757272656e74206f776e6560008201527f7200000000000000000000000000000000000000000000000000000000000000602082015250565b6000614165602183613547565b915061417082614109565b604082019050919050565b6000602082019050818103600083015261419481614158565b9050919050565b7f4552433732313a20617070726f76652063616c6c6572206973206e6f74206f7760008201527f6e6572206e6f7220617070726f76656420666f7220616c6c0000000000000000602082015250565b60006141f7603883613547565b91506142028261419b565b604082019050919050565b60006020820190508181036000830152614226816141ea565b9050919050565b7f4552433732313a207472616e736665722063616c6c6572206973206e6f74206f60008201527f776e6572206e6f7220617070726f766564000000000000000000000000000000602082015250565b6000614289603183613547565b91506142948261422d565b604082019050919050565b600060208201905081810360008301526142b88161427c565b9050919050565b7f4e487b7100000000000000000000000000000000000000000000000000000000600052603260045260246000fd5b7f4e487b7100000000000000000000000000000000000000000000000000000000600052601160045260246000fd5b6000614328826135f7565b9150614333836135f7565b925082821015614346576143456142ee565b5b828203905092915050565b600061435c826135f7565b915060008214156143705761436f6142ee565b5b600182039050919050565b6000819050919050565b60006143a061439b6143968461365a565b61437b565b61365a565b9050919050565b60006143b282614385565b9050919050565b60006143c4826143a7565b9050919050565b6143d4816143b9565b82525050565b600060e0820190506143ef600083018a613775565b8181036020830152614401818961359c565b90508181036040830152614415818861359c565b90506144246060830187613775565b614431608083018661368c565b61443e60a08301856143cb565b61444b60c083018461368c565b98975050505050505050565b6000614462826135f7565b91507fffffffffffffffffffffffffffffffffffffffffffffffffffffffffffffffff821415614495576144946142ee565b5b600182019050919050565b6000819050919050565b60006144c56144c06144bb846144a0565b61437b565b6135f7565b9050919050565b6144d5816144aa565b82525050565b60006060820190506144f06000830186613775565b6144fd60208301856144cc565b61450a6040830184613775565b949350505050565b7f4552433732313a206f776e657220717565727920666f72206e6f6e657869737460008201527f656e7420746f6b656e0000000000000000000000000000000000000000000000602082015250565b600061456e602983613547565b915061457982614512565b604082019050919050565b6000602082019050818103600083015261459d81614561565b9050919050565b7f4552433732313a2062616c616e636520717565727920666f7220746865207a6560008201527f726f206164647265737300000000000000000000000000000000000000000000602082015250565b6000614600602a83613547565b915061460b826145a4565b604082019050919050565b6000602082019050818103600083015261462f816145f3565b9050919050565b7f546865207469746c652063616e6e6f7420626520656d70747900000000000000600082015250565b600061466c601983613547565b915061467782614636565b602082019050919050565b6000602082019050818103600083015261469b8161465f565b9050919050565b7f54686520446174652063616e6e6f7420626520656d7074790000000000000000600082015250565b60006146d8601883613547565b91506146e3826146a2565b602082019050919050565b60006020820190508181036000830152614707816146cb565b9050919050565b7f546865206465736372697074696f6e2063616e6e6f7420626520656d70747900600082015250565b6000614744601f83613547565b915061474f8261470e565b602082019050919050565b6000602082019050818103600083015261477381614737565b9050919050565b7f5468652070726963652063616e6e6f7420626520656d70747900000000000000600082015250565b60006147b0601983613547565b91506147bb8261477a565b602082019050919050565b600060208201905081810360008301526147df816147a3565b9050919050565b7f54686520696d6167652063616e6e6f7420626520656d70747900000000000000600082015250565b600061481c601983613547565b9150614827826147e6565b602082019050919050565b6000602082019050818103600083015261484b8161480f565b9050919050565b600060e082019050614867600083018a613775565b8181036020830152614879818961359c565b9050818103604083015261488d818861359c565b905081810360608301526148a1818761359c565b90506148b06080830186613775565b6148bd60a083018561368c565b6148ca60c083018461368c565b98975050505050505050565b7f4552433732314d657461646174613a2055524920717565727920666f72206e6f60008201527f6e6578697374656e7420746f6b656e0000000000000000000000000000000000602082015250565b6000614932602f83613547565b915061493d826148d6565b604082019050919050565b6000602082019050818103600083015261496181614925565b9050919050565b600081905092915050565b600061497e8261353c565b6149888185614968565b9350614998818560208601613558565b80840191505092915050565b60006149b08285614973565b91506149bc8284614973565b91508190509392505050565b7f4552433732313a206f70657261746f7220717565727920666f72206e6f6e657860008201527f697374656e7420746f6b656e0000000000000000000000000000000000000000602082015250565b6000614a24602c83613547565b9150614a2f826149c8565b604082019050919050565b60006020820190508181036000830152614a5381614a17565b9050919050565b7f4552433732313a207472616e73666572206f6620746f6b656e2074686174206960008201527f73206e6f74206f776e0000000000000000000000000000000000000000000000602082015250565b6000614ab6602983613547565b9150614ac182614a5a565b604082019050919050565b60006020820190508181036000830152614ae581614aa9565b9050919050565b7f4552433732313a207472616e7366657220746f20746865207a65726f2061646460008201527f7265737300000000000000000000000000000000000000000000000000000000602082015250565b6000614b48602483613547565b9150614b5382614aec565b604082019050919050565b60006020820190508181036000830152614b7781614b3b565b9050919050565b6000614b89826135f7565b9150614b94836135f7565b9250827fffffffffffffffffffffffffffffffffffffffffffffffffffffffffffffffff03821115614bc957614bc86142ee565b5b828201905092915050565b7f4552433732313a207472616e7366657220746f206e6f6e20455243373231526560008201527f63656976657220696d706c656d656e7465720000000000000000000000000000602082015250565b6000614c30603283613547565b9150614c3b82614bd4565b604082019050919050565b60006020820190508181036000830152614c5f81614c23565b9050919050565b7f4552433732313a20617070726f766520746f2063616c6c657200000000000000600082015250565b6000614c9c601983613547565b9150614ca782614c66565b602082019050919050565b60006020820190508181036000830152614ccb81614c8f565b9050919050565b7f4e487b7100000000000000000000000000000000000000000000000000000000600052601260045260246000fd5b6000614d0c826135f7565b9150614d17836135f7565b925082614d2757614d26614cd2565b5b828204905092915050565b6000614d3d826135f7565b9150614d48836135f7565b925082614d5857614d57614cd2565b5b828206905092915050565b600081519050919050565b600082825260208201905092915050565b6000614d8a82614d63565b614d948185614d6e565b9350614da4818560208601613558565b614dad8161358b565b840191505092915050565b6000608082019050614dcd600083018761368c565b614dda602083018661368c565b614de76040830185613775565b8181036060830152614df98184614d7f565b905095945050505050565b600081519050614e13816134ad565b92915050565b600060208284031215614e2f57614e2e613477565b5b6000614e3d84828501614e04565b91505092915050565b7f4552433732313a206d696e7420746f20746865207a65726f2061646472657373600082015250565b6000614e7c602083613547565b9150614e8782614e46565b602082019050919050565b60006020820190508181036000830152614eab81614e6f565b9050919050565b7f4552433732313a20746f6b656e20616c7265616479206d696e74656400000000600082015250565b6000614ee8601c83613547565b9150614ef382614eb2565b602082019050919050565b60006020820190508181036000830152614f1781614edb565b905091905056fea2646970667358221220045dab9536bbacdd2722b269cdb659a3b5e60d296363e68812fe7930c2fc62a564736f6c63430008090033",
  "immutableReferences": {},
  "source": "//SPDX-License-Identifier: Unlicense\n\n//Author: Yogesh K for Finxter academy\n\npragma solidity ^0.8.7;\nimport \"@openzeppelin/contracts/token/ERC721/ERC721.sol\";\n\ncontract finxterArt is ERC721 {\n    struct Art {\n        uint256 id;\n        string title;\n        string description;\n        uint256 price;\n        string date;\n        string authorName;\n        address payable author;\n        address payable owner;\n        // 1 means token has sale status (or still in selling) and 0 means token is already sold,\n        // ownership transferred and moved to off-market gallery\n        uint256 status;\n        string image;\n    }\n\n    struct ArtTxn {\n        uint256 id;\n        uint256 price;\n        address seller;\n        address buyer;\n        uint256 txnDate;\n        uint256 status;\n    }\n\n    uint256 private pendingArtCount; // gets updated during minting(creation), buying and reselling\n    mapping(uint256 => ArtTxn[]) private artTxns;\n    uint256 public index; // uint256 value; is cheaper than uint256 value = 0;.\n    Art[] public arts;\n\n    event LogArtSold(\n        uint256 _tokenId,\n        string _title,\n        string _authorName,\n        uint256 _price,\n        address _author,\n        address _current_owner,\n        address _buyer\n    );\n    event LogArtTokenCreate(\n        uint256 _tokenId,\n        string _title,\n        string _category,\n        string _authorName,\n        uint256 _price,\n        address _author,\n        address _current_owner\n    );\n    event LogArtResell(uint256 _tokenId, uint256 _status, uint256 _price);\n\n    constructor(string memory name, string memory symbol)\n        ERC721(name, symbol)\n    {}\n\n    /* Create or minting the token */\n    function createFinxterToken(\n        string memory _title,\n        string memory _description,\n        string memory _date,\n        string memory _authorName,\n        uint256 _price,\n        string memory _image\n    ) public {\n        require(bytes(_title).length > 0, \"The title cannot be empty\");\n        require(bytes(_date).length > 0, \"The Date cannot be empty\");\n        require(\n            bytes(_description).length > 0,\n            \"The description cannot be empty\"\n        );\n        require(_price > 0, \"The price cannot be empty\");\n        require(bytes(_image).length > 0, \"The image cannot be empty\");\n\n        Art memory _art = Art({\n            id: index,\n            title: _title,\n            description: _description,\n            price: _price,\n            date: _date,\n            authorName: _authorName,\n            author: payable(msg.sender),\n            owner: payable(msg.sender),\n            status: 1,\n            image: _image\n        });\n\n        arts.push(_art); // push to the array\n        uint256 tokenId = arts.length - 1; // array length -1 to get the token ID = 0, 1,2 ...\n        _safeMint(msg.sender, tokenId);\n        emit LogArtTokenCreate(\n            tokenId,\n            _title,\n            _date,\n            _authorName,\n            _price,\n            msg.sender,\n            msg.sender\n        );\n        index++;\n        pendingArtCount++;\n    }\n\n    /*\n     *   The buyFinxterArt() function verifies whether the buyer has enough balance to purchase the art.\n     *   The function also checks whether the seller and buyer both have a valid account address.\n     *   The token owner's address is not the same as the buyer's address. The seller is the owner\n     *   of the art. Once all of the conditions have been verified, it will start the payment and\n     *   art token transfer process. _transfer transfers an art token from the seller to the buyer's\n     *   address. _current_owner.transfer will transfer the buyer's payment amount to the art owner's\n     *   account. If the seller pays extra Ether to buy the art, that ether will be refunded to the\n     *   buyer's account. Finally, the buyFinxterArt() function will update art ownership information in\n     *   the blockchain. The status will change to 0, also known as the sold status. The function\n     *   implementations keep records of the art transaction in the ArtTxn array.\n     */\n    function buyFinxterArt(uint256 _tokenId) public payable {\n        (\n            uint256 _id,\n            string memory _title,\n            ,\n            uint256 _price,\n            uint256 _status,\n            ,\n            string memory _authorName,\n            address _author,\n            address payable _current_owner,\n\n        ) = findFinxterArt(_tokenId);\n        require(_current_owner != address(0));\n        require(msg.sender != address(0));\n        require(msg.sender != _current_owner);\n        require(msg.value >= _price);\n        require(arts[_tokenId].owner != address(0));\n\n        _safeTransfer(_current_owner, msg.sender, _tokenId, \"\"); // transfer ownership of the art\n        //return extra payment\n        if (msg.value > _price)\n            payable(msg.sender).transfer(msg.value - _price);\n        //make a payment to the current owner\n        _current_owner.transfer(_price);\n\n        arts[_tokenId].owner = payable(msg.sender);\n        arts[_tokenId].status = 0;\n\n        ArtTxn memory _artTxn = ArtTxn({\n            id: _id,\n            price: _price,\n            seller: _current_owner,\n            buyer: msg.sender,\n            txnDate: block.timestamp,\n            status: _status\n        });\n\n        artTxns[_id].push(_artTxn);\n        pendingArtCount--;\n        emit LogArtSold(\n            _tokenId,\n            _title,\n            _authorName,\n            _price,\n            _author,\n            _current_owner,\n            msg.sender\n        );\n    }\n\n    /* Pass the token ID and get the art Information */\n    function findFinxterArt(uint256 _tokenId)\n        public\n        view\n        returns (\n            uint256,\n            string memory,\n            string memory,\n            uint256,\n            uint256 status,\n            string memory,\n            string memory,\n            address,\n            address payable,\n            string memory\n        )\n    {\n        Art memory art = arts[_tokenId];\n        return (\n            art.id,\n            art.title,\n            art.description,\n            art.price,\n            art.status,\n            art.date,\n            art.authorName,\n            art.author,\n            art.owner,\n            art.image\n        );\n    }\n\n    /*\n     * The resellFinxterArt() function verifies whether the sender's address is valid and makes sure\n     * that only the current art owner is allowed to resell the art. Then, the resellFinxterArt()\n     * function updates the art status from 0 to 1 and moves to the sale state. It also updates\n     * the art's selling price and increases the count of the current total pending arts. emit\n     * LogArtResell() is used to add a log to the blockchain for the art's status and price\n     * changes.\n     */\n    function resellFinxterArt(uint256 _tokenId, uint256 _price) public payable {\n        require(msg.sender != address(0));\n        require(isOwnerOf(_tokenId, msg.sender));\n        arts[_tokenId].status = 1;\n        arts[_tokenId].price = _price;\n        pendingArtCount++;\n        emit LogArtResell(_tokenId, 1, _price);\n    }\n\n    /* returns all the pending arts (status =1) back to the user */\n    function findAllPendingFinxterArt()\n        public\n        view\n        returns (\n            uint256[] memory,\n            address[] memory,\n            address[] memory,\n            uint256[] memory\n        )\n    {\n        if (pendingArtCount == 0) {\n            return (\n                new uint256[](0),\n                new address[](0),\n                new address[](0),\n                new uint256[](0)\n            );\n        }\n\n        uint256 arrLength = arts.length;\n        uint256[] memory ids = new uint256[](pendingArtCount);\n        address[] memory authors = new address[](pendingArtCount);\n        address[] memory owners = new address[](pendingArtCount);\n        uint256[] memory status = new uint256[](pendingArtCount);\n        uint256 idx = 0;\n        for (uint256 i = 0; i < arrLength; ++i) {\n            Art memory art = arts[i];\n            if (art.status == 1) {\n                ids[idx] = art.id;\n                authors[idx] = art.author;\n                owners[idx] = art.owner;\n                status[idx] = art.status;\n                idx++;\n            }\n        }\n\n        return (ids, authors, owners, status);\n    }\n\n    /* Return the token ID's that belong to the caller */\n    function findMyFinxterArts()\n        public\n        view\n        returns (uint256[] memory _myArts, uint256 tokens)\n    {\n        require(msg.sender != address(0));\n        uint256 numOftokens = balanceOf(msg.sender);\n        if (numOftokens == 0) {\n            return (new uint256[](0), 0);\n        } else {\n            uint256[] memory myArts = new uint256[](numOftokens);\n            uint256 idx = 0;\n            uint256 arrLength = arts.length;\n            for (uint256 i = 0; i < arrLength; i++) {\n                if (ownerOf(i) == msg.sender) {\n                    myArts[idx] = i;\n                    idx++;\n                }\n            }\n            return (myArts, numOftokens);\n        }\n    }\n\n    /* return true if the address is the owner of the token or else false */\n    function isOwnerOf(uint256 tokenId, address account)\n        public\n        view\n        returns (bool)\n    {\n        address owner = ownerOf(tokenId);\n        require(owner != address(0));\n        return owner == account;\n    }\n\n    function get_symbol() external view returns (string memory) {\n        return symbol();\n    }\n\n    function get_name() external view returns (string memory) {\n        return name();\n    }\n}\n",
  "sourcePath": "/home/yogi/Desktop/blogs/nftmarket/contracts/finxterArt.sol",
  "compiler": {
    "name": "solc",
    "version": "0.8.9+commit.e5eed63a.Emscripten.clang"
  },
  "schemaVersion": "3.4.1",
  "updatedAt": "2022-01-26T05:38:01.132Z",
  "networkType": "ethereum",
  "devdoc": {
    "kind": "dev",
    "methods": {
      "approve(address,uint256)": {
        "details": "See {IERC721-approve}."
      },
      "balanceOf(address)": {
        "details": "See {IERC721-balanceOf}."
      },
      "getApproved(uint256)": {
        "details": "See {IERC721-getApproved}."
      },
      "isApprovedForAll(address,address)": {
        "details": "See {IERC721-isApprovedForAll}."
      },
      "name()": {
        "details": "See {IERC721Metadata-name}."
      },
      "ownerOf(uint256)": {
        "details": "See {IERC721-ownerOf}."
      },
      "safeTransferFrom(address,address,uint256)": {
        "details": "See {IERC721-safeTransferFrom}."
      },
      "safeTransferFrom(address,address,uint256,bytes)": {
        "details": "See {IERC721-safeTransferFrom}."
      },
      "setApprovalForAll(address,bool)": {
        "details": "See {IERC721-setApprovalForAll}."
      },
      "supportsInterface(bytes4)": {
        "details": "See {IERC165-supportsInterface}."
      },
      "symbol()": {
        "details": "See {IERC721Metadata-symbol}."
      },
      "tokenURI(uint256)": {
        "details": "See {IERC721Metadata-tokenURI}."
      },
      "transferFrom(address,address,uint256)": {
        "details": "See {IERC721-transferFrom}."
      }
    },
    "version": 1
  },
  "userdoc": {
    "kind": "user",
    "methods": {},
    "version": 1
  }
}